:020000040800F2
:10000000000005208D7600087D7100087F710008D2
:1000100081710008837100088571000800000000EC
:1000200000000000000000000000000087710008D0
:1000300089710008000000008B7100088D710008B4
:10004000DD760008DD760008DD760008DD76000844
:10005000DD760008DD760008DD760008DD76000834
:10006000DD760008DD760008DD760008DD76000824
:10007000DD760008DD760008DD760008DD76000814
:10008000DD760008DD760008DD760008DD76000804
:10009000DD760008DD760008DD760008DD760008F4
:1000A000DD760008DD760008DD760008DD760008E4
:1000B000DD760008DD760008DD760008DD760008D4
:1000C000DD760008DD760008DD760008DD760008C4
:1000D000DD760008DD760008DD760008DD760008B4
:1000E000DD760008DD760008DD760008DD760008A4
:1000F000DD760008DD760008DD760008DD76000894
:10010000DD760008DD760008DD760008DD76000883
:10011000DD760008DD760008DD760008DD76000873
:10012000DD760008DD760008DD760008DD76000863
:10013000DD760008DD760008DD760008DD76000853
:10014000DD760008DD760008DD760008997100088C
:10015000DD760008DD760008DD760008DD76000833
:10016000DD760008DD760008DD760008DD76000823
:10017000DD760008DD760008DD760008000000006E
:10018000DD760008DD760008DD760008DD76000803
:10019000DD760008DD760008DD760008DD760008F3
:1001A000DD760008DD760008DD760008DD760008E3
:1001B000DD760008DD760008DD760008DD760008D3
:0801C000DD760008DD76000881
:1001D00010B5054C237833B9044B13B10448AFF381
:1001E00000800123237010BDF401002000000000F6
:1001F00098EC000808B5034B1BB103490348AFF363
:10020000008008BD00000000F801002098EC000804
:1002100081F0004102E000BF83F0004330B54FEAB7
:1002200041044FEA430594EA050F08BF90EA020F24
:100230001FBF54EA000C55EA020C7FEA645C7FEAB7
:10024000655C00F0E2804FEA5454D4EB5555B8BFDA
:100250006D420CDD2C4480EA020281EA030382EA4B
:10026000000083EA010180EA020281EA0303362DDD
:1002700088BF30BD11F0004F4FEA01314FF4801CB0
:100280004CEA113102D0404261EB410113F0004FC2
:100290004FEA03334CEA133302D0524263EB430379
:1002A00094EA050F00F0A780A4F10104D5F1200E17
:1002B0000DDB02FA0EFC22FA05F2801841F1000172
:1002C00003FA0EF2801843FA05F359410EE0A5F146
:1002D00020050EF1200E012A03FA0EFC28BF4CF077
:1002E000020C43FA05F3C01851EBE37101F000452D
:1002F00007D54FF0000EDCF1000C7EEB00006EEB3A
:100300000101B1F5801F1BD3B1F5001F0CD34908C3
:100310005FEA30004FEA3C0C04F101044FEA44521A
:1003200012F5800F80F09A80BCF1004F08BF5FEAA1
:10033000500C50F1000041EB045141EA050130BD81
:100340005FEA4C0C404141EB010111F4801FA4F124
:100350000104E9D191F0000F04BF01460020B1FA79
:1003600081F308BF2033A3F10B03B3F120020CDAB1
:100370000C3208DD02F1140CC2F10C0201FA0CF08F
:1003800021FA02F10CE002F11402D8BFC2F1200CF4
:1003900001FA02F120FA0CFCDCBF41EA0C019040AA
:1003A000E41AA2BF01EB0451294330BD6FEA0404F3
:1003B0001F3C1CDA0C340EDC04F11404C4F12002DE
:1003C00020FA04F001FA02F340EA030021FA04F3F0
:1003D00045EA030130BDC4F10C04C4F1200220FA47
:1003E00002F001FA04F340EA0300294630BD21FA85
:1003F00004F0294630BD94F0000F83F4801306BF4B
:1004000081F480110134013D4EE77FEA645C18BF3E
:100410007FEA655C29D094EA050F08BF90EA020FD5
:1004200005D054EA000C04BF1946104630BD91EACD
:10043000030F1EBF0021002030BD5FEA545C05D1D0
:100440004000494128BF41F0004130BD14F580040F
:100450003CBF01F5801130BD01F0004545F0FE4183
:1004600041F470014FF0000030BD7FEA645C1ABFB8
:10047000194610467FEA655C1CBF0B46024650EAEF
:10048000013406BF52EA033591EA030F41F400211B
:1004900030BD00BF90F0000F04BF0021704730B5A1
:1004A0004FF4806404F132044FF000054FF0000176
:1004B00050E700BF90F0000F04BF0021704730B537
:1004C0004FF4806404F1320410F0004548BF40420C
:1004D0004FF000013EE700BF42004FEAE2014FEA61
:1004E00031014FEA02701FBF12F07F4393F07F4F3C
:1004F00081F06051704732F07F4208BF704793F03F
:100500007F4F04BF41F40021704730B54FF4607451
:1005100001F0004521F000411CE700BF50EA010254
:1005200008BF704730B54FF000050AE050EA0102FD
:1005300008BF704730B511F0004502D5404261EB6D
:1005400041014FF4806404F132045FEA915C3FF4AE
:10055000D8AE4FF003025FEADC0C18BF03325FEA4B
:10056000DC0C18BF033202EBDC02C2F1200300FAFC
:1005700003FC20FA02F001FA03FE40EA0E0021FA21
:1005800002F11444BDE600BF70B54FF0FF0C4CF40F
:10059000E06C1CEA11541DBF1CEA135594EA0C0FC1
:1005A00095EA0C0F00F0DEF82C4481EA030621EAFC
:1005B0004C5123EA4C5350EA013518BF52EA033537
:1005C00041F4801143F4801338D0A0FB02CE4FF0E9
:1005D0000005E1FB02E506F00042E0FB03E54FF019
:1005E0000006E1FB03569CF0000F18BF4EF0010E11
:1005F000A4F1FF04B6F5007F64F5407404D25FEA0D
:100600004E0E6D4146EB060642EAC62141EA5551BF
:100610004FEAC52040EA5E504FEACE2EB4F1FD0C01
:1006200088BFBCF5E06F1ED8BEF1004F08BF5FEA7F
:10063000500E50F1000041EB045170BD06F0004631
:1006400046EA010140EA020081EA0301B4EB5C04DE
:10065000C2BFD4EB0C0541EA045170BD41F48011D6
:100660004FF0000E013C00F3AB8014F1360FDEBFFB
:10067000002001F0004170BDC4F10004203C35DAD7
:100680000C341BDC04F11404C4F1200500FA05F35A
:1006900020FA04F001FA05F240EA020001F00042FB
:1006A00021F0004110EBD37021FA04F642EB060171
:1006B0005EEA430E08BF20EAD37070BDC4F10C049B
:1006C000C4F1200500FA04F320FA05F001FA04F25F
:1006D00040EA020001F0004110EBD37041F100014B
:1006E0005EEA430E08BF20EAD37070BDC4F1200556
:1006F00000FA05F24EEA020E20FA04F301FA05F2BE
:1007000043EA020321FA04F001F0004121FA04F265
:1007100020EA020000EBD3705EEA430E08BF20EA35
:10072000D37070BD94F0000F0FD101F0004640006F
:1007300041EB010111F4801F08BF013CF7D041EAF1
:10074000060195F0000F18BF704703F000465200F5
:1007500043EB030313F4801F08BF013DF7D043EAC6
:100760000603704794EA0C0F0CEA135518BF95EA7C
:100770000C0F0CD050EA410618BF52EA4306D1D103
:1007800081EA030101F000414FF0000070BD50EA22
:10079000410606BF1046194652EA430619D094EAAC
:1007A0000C0F02D150EA013613D195EA0C0F05D196
:1007B00052EA03361CBF104619460AD181EA0301EA
:1007C00001F0004141F0FE4141F470014FF00000A2
:1007D00070BD41F0FE4141F4780170BD70B54FF03D
:1007E000FF0C4CF4E06C1CEA11541DBF1CEA1355BD
:1007F00094EA0C0F95EA0C0F00F0A7F8A4EB05049F
:1008000081EA030E52EA03354FEA013100F0888095
:100810004FEA03334FF0805545EA131343EA12635E
:100820004FEA022245EA111545EA10654FEA002613
:100830000EF000419D4208BF964244F1FD0404F5CC
:10084000407402D25B084FEA3202B61A65EB030528
:100850005B084FEA32024FF480104FF4002CB6EBE5
:10086000020E75EB030E22BFB61A754640EA0C0065
:100870005B084FEA3202B6EB020E75EB030E22BFA5
:10088000B61A754640EA5C005B084FEA3202B6EBE6
:10089000020E75EB030E22BFB61A754640EA9C00A5
:1008A0005B084FEA3202B6EB020E75EB030E22BF75
:1008B000B61A754640EADC0055EA060E18D04FEA33
:1008C000051545EA16754FEA06164FEAC30343EAD3
:1008D00052734FEAC2025FEA1C1CC0D111F4801FA0
:1008E0000BD141EA00014FF000004FF0004CB6E799
:1008F00011F4801F04BF01430020B4F1FD0C88BF38
:10090000BCF5E06F3FF6AFAEB5EB030C04BFB6EB42
:10091000020C5FEA500C50F1000041EB045170BD35
:100920000EF0004E4EEA113114EB5C04C2BFD4EB62
:100930000C0541EA045170BD41F480114FF0000EE6
:10094000013C90E645EA060E8DE60CEA135594EA62
:100950000C0F08BF95EA0C0F3FF43BAF94EA0C0F65
:100960000AD150EA01347FF434AF95EA0C0F7FF4DA
:1009700025AF104619462CE795EA0C0F06D152EA2E
:1009800003353FF4FDAE1046194622E750EA410612
:1009900018BF52EA43067FF4C5AE50EA41047FF423
:1009A0000DAF52EA43057FF4EBAE12E74FF0FF3C88
:1009B00006E000BF4FF0010C02E000BF4FF0010C59
:1009C0004DF804CD4FEA410C7FEA6C5C4FEA430CD2
:1009D00018BF7FEA6C5C1BD001B050EA410C0CBF21
:1009E00052EA430C91EA030F02BF90EA020F002083
:1009F000704710F1000F91EA030F58BF994208BFEA
:100A000090422CBFD8176FEAE37040F001007047A6
:100A10004FEA410C7FEA6C5C02D150EA013C07D1FD
:100A20004FEA430C7FEA6C5CD6D152EA033CD3D048
:100A30005DF8040B704700BF8446104662468C4642
:100A40001946634600E000BF01B5FFF7B7FF002875
:100A500048BF10F1000F01BD4DF808EDFFF7F4FF9E
:100A60000CBF012000205DF808FB00BF4DF808ED29
:100A7000FFF7EAFF34BF012000205DF808FB00BF4C
:100A80004DF808EDFFF7E0FF94BF012000205DF86E
:100A900008FB00BF4DF808EDFFF7CEFF94BF012023
:100AA00000205DF808FB00BF4DF808EDFFF7C4FF1C
:100AB00034BF012000205DF808FB00BF4FEA410C65
:100AC0007FEA6C5C02D150EA013C0AD14FEA430C48
:100AD0007FEA6C5C02D152EA033C02D14FF0000085
:100AE00070474FF0010070474A0011D212F5001212
:100AF00011D20DD56FF47873B3EB62520ED44FEA76
:100B0000C12343F0004343EA505323FA02F07047F5
:100B10004FF00000704750EA013002D14FF0FF3033
:100B200070474FF0000070474FEA4102B2F1E043D6
:100B300024BFB3F5001CDCF1FE5C0DD901F0004CC4
:100B40004FEAC0024CEA5070B2F1004F40EB830014
:100B500008BF20F00100704711F0804F21D113F140
:100B60003872BCBF01F00040704741F480114FEA79
:100B70005252C2F11802C2F1200C10FA0CF320FA02
:100B800002F018BF40F001004FEAC1234FEAD3231F
:100B900003FA0CFC40EA0C0023FA02F34FEA430389
:100BA000CCE77FEA625307D150EA01331EBF4FF012
:100BB000FE4040F44000704701F0004040F0FE402D
:100BC00040F40000704700BF53B94AB9002908BF7C
:100BD00000281CBF4FF0FF314FF0FF3000F072B91A
:100BE000ADF1080C6DE904CE00F006F8DDF804E084
:100BF000DDE9022304B070472DE9F047089E044662
:100C00008846002B4BD18A42154667D9B2FA82F248
:100C10004AB1C2F1200701FA02F320FA07F7954022
:100C200047EA030894404FEA154E230CB8FBFEF741
:100C30001FFA85FC0EFB178843EA084307FB0CF1FB
:100C4000994209D9EB1807F1FF3080F01B819942D6
:100C500040F21881023F2B445B1AA4B2B3FBFEF0B2
:100C60000EFB103344EA034400FB0CFCA44509D9F5
:100C70002C1900F1FF3380F00781A44540F2048174
:100C800002382C4440EA0740A4EB0C0400271EB1B4
:100C9000D4400023C6E900433946BDE8F0878B42C3
:100CA00009D9002E00F0EB800027C6E90001384684
:100CB0003946BDE8F087B3FA83F7002F47D18B425E
:100CC00002D3824200F2FA80841A61EB030301200E
:100CD0009846002EE0D0C6E90048DDE702B9FFDE05
:100CE000B2FA82F2002A40F08F80491B4FEA154E7B
:100CF0001FFA85F80127B1FBFEFC230C0EFB1C112B
:100D000043EA014308FB0CF1994207D9EB180CF1B7
:100D1000FF3002D2994200F2CD808446591AA3B224
:100D2000B1FBFEF00EFB101443EA044408FB00F88C
:100D3000A04507D92C1900F1FF3302D2A04500F2DB
:100D4000B6801846A4EB080440EA0C409FE7C7F1C0
:100D5000200CBB4022FA0CFE4EEA030E01FA07F407
:100D600020FA0CF521FA0CF34FEA1E482543B3FB99
:100D7000F8F92C0C08FB19331FFA8EFA44EA0343E6
:100D800009FB0AF49C4202FA07F200FA07F10BD9B8
:100D90001EEB030309F1FF3080F087809C4240F294
:100DA0008480A9F1020973441B1BADB2B3FBF8F0B8
:100DB00008FB103345EA034400FB0AFAA24508D9B0
:100DC0001EEB040400F1FF336BD2A24569D902384F
:100DD000744440EA0940A0FB0289A4EB0A044C4594
:100DE000C2464B4654D351D0002E69D0B1EB0A0510
:100DF00064EB030404FA0CFCFD40FC404CEA0505DE
:100E0000C6E90054002747E7C2F1200320FA03F7A0
:100E1000954001FA02F021FA03F34FEA154E3843E8
:100E2000010CB3FBFEF71FFA85F80EFB173341EAFE
:100E3000034107FB08F38B4204FA02F407D969184F
:100E400007F1FF3C2FD28B422DD9023F2944CB1A08
:100E500081B2B3FBFEF00EFB103341EA034100FB0D
:100E600008F38B4207D9691800F1FF3C17D28B4277
:100E700015D902382944C91A40EA07473BE73746E3
:100E8000304609E70746E7E61846FBE64145ABD2A0
:100E9000B8EB020A69EB0E0201381346A4E760467C
:100EA000E9E7184695E76746D1E781467CE70238CF
:100EB0002C4447E7ACF1020C2B442FE7384608E7F7
:100EC0003746E9E6704700BF000000000000000060
:100ED00001F0FF01102A2BDB10F0070F08D010F8EB
:100EE000013B013A8B422DD010F0070F42B3F6D1EF
:100EF000F0B441EA012141EA014122F007047FF008
:100F000000070023F0E80256083C85EA010586EA5E
:100F1000010685FA47F5A3FA87F586FA47F6A5FA9A
:100F200087F68EB9EED1F0BC01F0FF0102F00702A6
:100F300032B110F8013B013A83EA010313B1F8D151
:100F40000020704701387047002D06BF3546033832
:100F5000073815F0010F07D1013015F4807F02BF6B
:100F6000013015F4C03F0130F0BC0138704700BFBC
:100F70002DE9F0438BB0364B1A6B42F480521A6362
:100F80001A6B02F480520192019A1A6B42F010021D
:100F90001A631A6B02F010020292029A1A6B42F064
:100FA00020021A631A6B02F020020392039A1A6B52
:100FB00042F040021A631B6B03F040030493049B4E
:100FC000244C00224FF47841204600F0CBFBDFF8A0
:100FD00088900022FF21484600F0C4FBDFF87C80A7
:100FE00000224FF47F41404600F0BCFB4FF47843B1
:100FF000059301270697002607960325089505A95E
:10100000204600F0BFFAFF23059306970796089540
:1010100005A9484600F0B6FA4FF47F4305930697BA
:101020000796089505A9404600F0ACFA4FF4005326
:10103000A3614FF40063A3614FF48053A3614FF4A5
:101040000043A3614FF48043A3610BB0BDE8F0837C
:101050000038024000140240001802400010024014
:1010600010B4C34311494FF07F428A61104A4FF0D8
:10107000005494614FF0004494611B0403F47F0317
:10108000C4B223430B4CA3614B6900F47F40184367
:1010900048614FF0006393614FF4006393614FF434
:1010A000005393615DF8044B704700BF001002408D
:1010B000001402400018024010B4C34311494FF01D
:1010C0007F428A61104A4FF0005494614FF400440B
:1010D00094611B0403F47F03C4B223430B4CA3614C
:1010E0004B6900F47F40184348614FF000639361FF
:1010F0004FF4006393614FF4005393615DF8044B28
:10110000704700BF00100240001402400018024067
:1011100038B505460C4604E035F8020BFFF7CCFF66
:10112000013C002CF8D138BD10B5544C4FF0804331
:10113000A3614FF4FA7000F097F94FF48043A36174
:10114000642000F091F90120FFF78AFF0A2000F0E7
:101150008BF9E220FFF784FF1D20FFF7ADFF02208F
:10116000FFF7AAFF0420FFF7A7FFE020FFF778FFB3
:101170000120FFF7A1FF642000F076F9E020FFF7DF
:101180006FFF0320FFF798FFB020FFF769FF2020D3
:10119000FFF792FF0020FFF78FFF0120FFF78CFF82
:1011A000DF20FFF789FF0120FFF786FF0F20FFF701
:1011B00083FF0020FFF780FFF020FFF751FF03209F
:1011C000FFF77AFFE620FFF74BFF0120FFF774FFE0
:1011D0007520FFF771FFED20FFF76EFFB420FFF7DA
:1011E0003FFF0220FFF768FF1420FFF765FF002094
:1011F000FFF762FF2C20FFF75FFF0220FFF75CFF85
:101200000020FFF759FF0020FFF756FF0020FFF7EF
:1012100053FFB620FFF724FF0120FFF74DFF1E20EC
:10122000FFF74AFF0020FFF747FF0C20FFF744FFBE
:101230000620FFF741FF0020FFF73EFF0020FFF7E9
:101240003BFF2920FFF70CFF0A2000F00DF9BE201C
:10125000FFF706FF0420FFF72FFFC020FFF72CFF4A
:101260000120FFF729FF4020FFF726FF0020FFF7AE
:1012700023FF0020FFF720FF10BD00BF0014024035
:10128000F8B507460E4615461C462A20FFF7E8FE2D
:10129000380AFFF711FFF8B2FFF70EFF300AFFF729
:1012A0000BFFF0B2FFF708FF2B20FFF7D9FE280A4B
:1012B000FFF702FFE8B2FFF7FFFE200AFFF7FCFE90
:1012C000E0B2FFF7F9FEF8BD2DE9F84380460F467E
:1012D00016461D46BDF82090FFF7D2FF2C20FFF7E1
:1012E000BFFE002404E04846FFF7E6FE0134A4B246
:1012F000A7EB0801AA1B531C01FB03339C42F2DB42
:10130000BDE8F88384B008B50DF1080C8CE80F0037
:101310004C22614603480DF0A1F8BDE8084004B036
:10132000704700BF7893012000B585B08DF80C00A0
:101330008DF80D104FF440530093022303AA882127
:10134000034800F0DDFB0028F4D105B05DF804FB94
:101350007893012008B502210320FFF7E5FF0A205A
:1013600000F082F804210846FFF7DEFF03210A207F
:10137000FFF7DAFF48212020FFF7D6FF022000F018
:1013800073F801212120FFF7CFFF00211720FFF77D
:10139000CBFFA3214120FFF7C7FF01214A20FFF720
:1013A000C3FF01214B20FFF7BFFF00214B20FFF7B8
:1013B000BBFF07215620FFF7B7FF01215820FFF799
:1013C000B3FF30214020FFF7AFFF31214020FFF76E
:1013D000ABFFFF210B20FFF7A7FF01210920FFF73B
:1013E000A3FF08BD10B504460E4B18784FF47A736E
:1013F000B3FBF0F30C4A1068B0FBF3F000F098F880
:1014000068B90F2C01D901200AE0002221464FF0D3
:10141000FF3000F04FF8034B5C60002000E001203B
:1014200010BD00BF000000201801002008B50320F7
:1014300000F02EF80020FFF7D5FF05F00FFE00208A
:1014400008BD0000034A1168034B1B780B4413606E
:10145000704700BFC493012000000020014B1868B2
:10146000704700BFC493012038B50446FFF7F6FF6C
:101470000546B4F1FF3F02D0044B1B781C44FFF734
:10148000EDFF401BA042FAD338BD00BF0000002092
:101490000649CB6823F4E0631B041B0C000200F434
:1014A000E0600343024A1A43CA60704700ED00E05F
:1014B0000000FA0530B4154BDB68C3F30223C3F117
:1014C0000704042C28BF04241D1D062D14D9033B3A
:1014D0004FF0FF3505FA04F421EA0401994005FABA
:1014E00003F322EA03031943002807DB0901C9B209
:1014F000074B195430BC70470023E9E700F00F0098
:101500000901C9B2034B1954F4E700BF00ED00E034
:1015100000E400E014ED00E000F01F0240090123A8
:101520009340024A42F82030704700BF00E100E0DB
:101530000138B0F1807F0AD2064B5860064AF0218C
:1015400082F823100020986007221A60704701205B
:10155000704700BF10E000E000ED00E0042805D077
:10156000054A136823F0040313607047024A1368A6
:1015700043F004031360704710E000E008B505F085
:101580001BFB08BD00230F2B00F2E280F0B482B0F9
:1015900039E0092200E00022B2403A4302346D4EA5
:1015A00046F824206C4A1468EA4302EA04064F68AD
:1015B00017F4803F01D045EA0406674C2660646852
:1015C00002EA04064F6817F4003F01D045EA04061A
:1015D000614C6660A46802EA04064F6817F4801F35
:1015E00001D045EA04065C4CA660E46822404E68DF
:1015F00016F4001F01D045EA0402574CE2600133A3
:101600000F2B00F2A28001229A400C6804EA020526
:10161000AA42F4D14C68122C18BF022C10D1DE085B
:10162000083650F826C003F00704A7000F24BC407A
:101630002CEA040C0C69BC4044EA0C0440F8264037
:1016400004685F000326BE40F64306EA040C4C68BB
:1016500004F00304BC4044EA0C0404604C6804F148
:10166000FF3C112C18BFBCF1010F01D9122C11D174
:10167000846806EA040CCC68BC4044EA0C0484602C
:10168000446824EA020C4C68C4F300129A4042EA0F
:101690000C024260C26816408A68BA403243C26097
:1016A0004A6812F0805FAAD02C4A546C44F48044FB
:1016B0005464526C02F480420192019A9C08A61C68
:1016C000244A52F8267003F0030296000F22B2401B
:1016D00027EA0207224A90423FF45DAF02F580629A
:1016E000904222D002F58062904220D002F58062C2
:1016F00090421ED002F5806290421CD002F58062BA
:1017000090421AD002F58062904218D002F58062B1
:10171000904216D002F58062904214D002F58062A9
:1017200090423FF436AF0A2236E7012234E7022224
:1017300032E7032230E704222EE705222CE70622B7
:101740002AE7072228E7082226E702B0F0BC704704
:10175000704700BF00380140003C014000380240A3
:101760000000024012B9090481617047816170472D
:1017700003689A6912F0020F01D000229A6203688E
:101780009A6912F0010F03D19A6942F001029A613D
:10179000704770B4039E05686868740D04F4806433
:1017A00044F07F7444F4583444F47F7444F00304E8
:1017B00020EA0400C1F3090141EA0241194331431F
:1017C0000143696070BC704770B504460D4616460B
:1017D00003689B6913F0100F17D023689A6912F001
:1017E000200F14D1B5F1FF3FF7D025B1FFF736FE3A
:1017F000801BA842F1D9202384F84130002384F8CB
:10180000423084F8403003201EE000201CE010220B
:10181000DA6123682025DD612046FFF7A9FF2268F1
:10182000536823F0FF7323F48B3323F4FF7323F007
:10183000010353600423636484F84150002384F857
:10184000423084F84030012070BD70B504460D462A
:10185000164623689B6913F0020F1CD132462946B5
:101860002046FFF7B1FFC0B9B5F1FF3FF1D025B178
:10187000FFF7F4FD801BA842EBD9636C43F0200313
:101880006364202384F84130002384F8423084F8D4
:101890004030032000E0002070BD0120FCE7F8B5D7
:1018A00005460F4616461C462B689B6937EA03031C
:1018B0000CBF01230023B34213D1B4F1FF3FF3D097
:1018C0002CB1FFF7CBFD069BC01AA042ECD9202318
:1018D00085F84130002385F8423085F840300320F8
:1018E00000E00020F8BD000070B582B00446164646
:1018F0001D461E4B00934FF08073EAB2FFF749FF7D
:10190000079A06992046FFF7A0FF30B1636C042BBD
:1019100027D10123184602B070BD012D0FD12368D5
:10192000F6B29E62079B0093069B00228021204610
:10193000FFF7B5FF03460028ECD00323EAE723684E
:10194000320A9A62079A06992046FFF77EFF20B175
:10195000636C042B07D10123DCE72368F6B29E6297
:10196000E0E70323D6E70323D4E700BF002000808D
:1019700070B582B0044616461D461D4B00930023E9
:10198000EAB2FFF706FF079A06992046FFF75DFFC8
:1019900030B1636C042B27D10123184602B070BD0F
:1019A000012D0FD12368F6B29E62079B0093069B20
:1019B000002240212046FFF772FF03460028ECD0AA
:1019C0000323EAE72368320A9A62079A06992046B7
:1019D000FFF73BFF20B1636C042B07D10123DCE749
:1019E0002368F6B29E62E0E70323D6E70323D4E739
:1019F0000020008070B505460C4616462B689B6992
:101A000013F0200F19D1324621462846FFF7DCFE9D
:101A1000A8B924B1FFF722FD801BA042EED96B6C60
:101A200043F020036B64202385F84130002385F8C0
:101A3000423085F84030032070BD0020FCE70120D3
:101A4000FAE70000002857D010B5044690F841305E
:101A5000002B41D0242384F841302268136823F0FE
:101A6000010313606368226823F0706313612268C6
:101A7000936823F400439360E368012B31D0A3689B
:101A8000226843F404439360E368022B2FD022685A
:101A900051681A4B0B4353602268D36823F4004308
:101AA000D360236962691343A169226843EA012371
:101AB000D360E369216A22680B43136022681368CC
:101AC00043F00103136000206064202384F8413058
:101AD000206384F8420010BD80F8403005F006FB1A
:101AE000B8E7A368226843F400439360CCE7236817
:101AF0004FF400625A60CAE701207047008000027C
:101B00002DE9F04383B090F84150EDB2202D40F024
:101B1000AD8090F84040012C00F0AD80984617460B
:101B20000E4604464FF0010980F84090FFF796FCFE
:101B30000546009019234A464FF400412046FFF71E
:101B4000AEFE002840F09980212384F84130102314
:101B500084F84230002363646762A4F82A806363D8
:101B6000638D9BB2FF2B0AD9FF222285474B00933E
:101B70004FF0807331462046FFF70BFE1DE0628D6B
:101B800092B22285414B00934FF00073D2B231469E
:101B90002046FFF7FEFD10E0636C042B6FD101239C
:101BA00065E0628D92B22285002300934FF00073AE
:101BB000D2B231462046FFF7ECFD638D9BB2002B7D
:101BC00032D02A460A992046FFF73FFE0028E3D18B
:101BD000636A5A1C626222681B789362638D013BC0
:101BE0009BB26385238D013B9BB22385002BE4D1FF
:101BF000638D9BB2002BE0D000950A9B00228021D0
:101C00002046FFF74CFE00283BD1638D9BB2FF2B93
:101C1000C7D9FF222285002300934FF080733146FD
:101C20002046FFF7B6FDC8E72A460A992046FFF787
:101C3000E1FE034620B1636C042B24D1012316E09E
:101C400022682021D1612068426822F0FF7222F4CC
:101C50008B3222F4FF7222F00102426084F84110BC
:101C6000002284F8422084F8402000E00223184635
:101C700003B0BDE8F0830223F9E70323F7E703236A
:101C8000F5E70323F3E70323F1E700BF002000801B
:101C90002DE9F04782B0BDF82C7090F84150EDB2BC
:101CA000202D40F0CE80B7FA87F56D090A9C002CF4
:101CB00008BF0125002D40F0C98090F84040012C5C
:101CC00000F0C680984691460D4604464FF0010A42
:101CD00080F840A0FFF7C2FB064600901923524649
:101CE0004FF400412046FFF7DAFD002840F0B280B3
:101CF000212384F84130402384F842300023636478
:101D00000A9A62626785636301960C9B009343465F
:101D10004A4629462046FFF7E7FD60B1636C042B75
:101D200004D1002384F8403053468BE0002384F82C
:101D30004030032386E0638D9BB2FF2B0AD9FF223C
:101D40002285002300934FF0807329462046FFF739
:101D500020FD21E0628D92B22285002300934FF096
:101D60000073D2B229462046FFF713FD14E0636CDE
:101D7000042B71D1012365E0628D92B2228500238C
:101D800000934FF00073D2B229462046FFF701FDC1
:101D9000638D9BB2002B32D032460C992046FFF760
:101DA00054FD0028E3D1636A5A1C626222681B78E2
:101DB0009362638D013B9BB26385238D013B9BB294
:101DC0002385002BE4D1638D9BB2002BE0D00096DD
:101DD0000C9B002280212046FFF761FD00283DD1A9
:101DE000638D9BB2FF2BC7D9FF222285002300936E
:101DF0004FF0807329462046FFF7CBFCC8E73246F8
:101E00000C992046FFF7F6FD034620B1636C042BC6
:101E100026D1012316E022682021D1612068426882
:101E200022F0FF7222F48B3222F4FF7222F00102C0
:101E3000426084F84110002284F8422084F8402057
:101E400000E00223184602B0BDE8F0870123F9E75D
:101E50000223F7E70323F5E70323F3E70323F1E77F
:101E60000323EFE72DE9F04782B0BDF82C7090F81E
:101E70004150EDB2202D40F0CB80B7FA87F56D09C7
:101E80000A9C002C08BF0125002D40F0C68090F868
:101E90004040012C00F0C380984691460D46044610
:101EA0004FF0010A80F840A0FFF7D8FA06460090EC
:101EB000192352464FF400412046FFF7F0FC00285A
:101EC00040F0AF80222384F84130402384F8423030
:101ED000002363640A9A62626785636301960C9BC0
:101EE000009343464A4629462046FFF741FD60B12C
:101EF000636C042B04D1002384F84030534688E0FF
:101F0000002384F84030032383E0638D9BB2FF2BD2
:101F10000AD9FF222285474B00934FF08073294650
:101F20002046FFF736FC1CE0628D92B22285414BC1
:101F300000934FF00073D2B229462046FFF729FCE8
:101F40000FE0628D92B22285002300934FF0007360
:101F5000D2B229462046FFF71CFC638D9BB2002BB2
:101F600034D000960C9B002204212046FFF797FCFA
:101F7000002858D123685A6A636A591C61621A7032
:101F8000238D013B9BB22385628D013A92B262851B
:101F9000002BE2D1638D9BB2002BDED000960C9B10
:101FA000002280212046FFF77AFC00283DD1638D76
:101FB0009BB2FF2BC5D9FF222285002300934FF04F
:101FC000807329462046FFF7E4FBC6E732460C99AA
:101FD0002046FFF70FFD034620B1636C042B26D18A
:101FE000012316E022682021D1612068426822F096
:101FF000FF7222F48B3222F4FF7222F0010242605F
:1020000084F84110002284F8422084F8402000E047
:102010000223184602B0BDE8F0870123F9E7022346
:10202000F7E70323F5E70323F3E70323F1E70323AC
:10203000EFE700BF0024008090F84130DBB2202B96
:1020400024D190F84030012B22D0012380F8403079
:10205000242380F841300268136823F001031360E1
:102060000268136823F480531360026813681943ED
:1020700011600268136843F001031360202380F8A5
:102080004130002380F840301846704702207047E6
:102090000220704790F84130DBB2202B22D190F81B
:1020A0004030012B20D0012380F84030242380F8D9
:1020B00041300268136823F001031360026813685B
:1020C00023F4706343EA012111600268136843F04E
:1020D00001031360202380F84130002380F8403052
:1020E0001846704702207047022070472DE9F047DC
:1020F00082B007460D46D0F80080C146CA00521A89
:10210000930003441A6D596D521A5E6C964200D3C7
:10211000164606F1030A4FEA9A0A15E006F1030A89
:102120004FEA9A0AEB005B1B9C003C44A16C3B7C91
:102130000093B3B2EAB2404601F040FEA36C3344D0
:10214000A364636D3344636509EB451303F51063C2
:102150009B699BB2534512D9EB005B1B9A003A4432
:10216000516D136D99420AD24BB15B1AC5EBC50193
:102170008A003A44566C9E42D0D31E46CEE73EB902
:102180000123AB40D8F8345825EA0305C8F8345881
:10219000002002B0BDE8F08700287DD0F0B58BB0FC
:1021A000044690F8BD33E3B1032384F8BD332068BF
:1021B00001F0C2FB254655F8107B6E460FCD0FC6C9
:1021C0000FCD0FC695E8030086E80300231D0ECB54
:1021D000384601F06DFB0021206801F0B3FB0023BD
:1021E0001AE080F8BC3305F049F8DDE7D900C81AD9
:1021F00082002244012082F83D0082F83C30A2F89F
:102200004230002082F83F0050649064CA1A910066
:10221000214408650133DBB20E2BE7D9002315E01A
:10222000D800C11A8A002244002182F8FD1182F8E8
:10223000FC3182F8FF11C2F80412C2F80812C21A67
:1022400090002044C0F810120133DBB20E2BE7D906
:10225000254655F8107B6E460FCD0FC60FCD0FC625
:1022600095E8030086E80300231D0ECB384601F0F5
:10227000AFFB002384F83830012384F8BD33636A50
:10228000012B05D0206801F028FF00200BB0F0BD25
:10229000204600F00FFDF5E70120704790F8BC33B1
:1022A000012B0ED010B50446012380F8BC33006822
:1022B00001F007FF206801F039FB002084F8BC031F
:1022C00010BD0220704700002DE9F04F83B0044696
:1022D0000568D5F84090284601F03CFF10B103B0E6
:1022E000BDE8F08FA8460646206801F002FF0028EE
:1022F000F5D0206801F0FDFE10F0020F04D0226836
:10230000536903F002035361206801F0F2FE10F4F8
:10231000002F40F092803746206801F0EAFE10F46A
:10232000802F40F03581206801F0E3FE0028C0F2E4
:10233000A381206801F0DDFE10F4006F0AD0D5F80B
:10234000083813F0010F40F0B1812268536903F49B
:1023500000635361206801F0CCFE10F0006F15D0CF
:102360002268536903F00063536194F8F033002B43
:1023700040F0A081012184F8F01323685B6DC3F362
:102380008303C4F8F433204605F0E6F8206801F032
:10239000B0FE10F4805F40F09181206801F0A9FE4A
:1023A00010F4005F40F0E281206801F0A2FE10F01E
:1023B000100F14D02268936923F0100393612E6AE2
:1023C00006F00F08C6F34343022B00F06282062B8F
:1023D00000F080822268936943F0100393612068C3
:1023E00001F087FE10F0080F40F08882206801F0AD
:1023F00080FE10F4801F40F08A82206801F079FE90
:1024000010F4001F40F08D82206801F072FE10F081
:10241000804F40F09082206801F06BFE10F0040FB6
:102420003FF45DAF23685D6815F0040F40F08C82C7
:10243000226853682B43536051E7206801F05DFE2A
:10244000824637464FE0D8F8082B12F4004F67D089
:102450004FF400429A6063E0F900C91B8A002244ED
:10246000D2F804121869C0F31200091AC2F8141243
:10247000D2F80402D2F808120144C2F8081252E05D
:102480000199204604F03AFF03E00199204604F048
:1024900035FF2369012B52D01BF0080F10D0C34B1E
:1024A00099455DD0C24B994502D92369012B63D070
:1024B000204604F01BFF08EB47130822C3F8082B43
:1024C0001BF0100F04D008EB47131022C3F8082BA1
:1024D0001BF0200F04D008EB47132022C3F8082B71
:1024E00001374FEA5A0ABAF1000F3FF415AF1AF05C
:1024F000010FF5D0FBB201931946206801F00DFEE3
:10250000834610F0010FC7D008EB471303F5306383
:1025100001229A60A64A914502D92269012A92D0E5
:102520002269012A98D0A14A9145AED1D8F8082B4A
:1025300012F4004FA4D04FF400429A60A9E7002F94
:10254000AAD1C7EBC70293002344D3F81032002B63
:10255000A2D104F570720121206801F01BFE9BE7F7
:10256000D8F8083B13F4004F9CD008EB47134FF406
:102570000042C3F8082B95E7D8F8083B13F4004F46
:1025800096D008EB47134FF40042C3F8082B8FE7AF
:10259000206801F0BAFD814637462EE0FA00D21BD2
:1025A00093002344596C9A6C0A449A6448E01AF0E8
:1025B000080F04D008EB47130822C3F808291AF0C3
:1025C000100F04D008EB47131022C3F808291AF0A3
:1025D000400F04D008EB47134022C3F808291AF033
:1025E000020F04D008EB47130222C3F808291AF09F
:1025F000800F3CD101374FEA5909B9F1000F3FF480
:1026000092AE19F0010FF5D05FFA87FB59462068AA
:1026100001F08CFD824610F0010FC8D007F00F03C7
:10262000012101FA03F2D8F8343823EA0203C8F88A
:10263000343808EB4713C3F8081923698B42ADD02F
:102640005946204604F066FE2369012BAFD1002FC6
:10265000ADD1C7EBC702930023441B6D002BA6D15D
:1026600004F570720121206801F094FD9FE739465E
:102670002046FFF73BFDBDE7D5F8043823F0010302
:10268000C5F8043894F8F033012B08D0204604F044
:102690007BFE2268536903F00043536149E6002141
:1026A00084F8F013204604F057FFF2E7204604F0C8
:1026B00053FE4AE6204604F04FFE67E605F5006942
:1026C000D9F8043023F00103C9F804301021206840
:1026D00001F050F914E008EB46134FF67F31C3F8D0
:1026E0000819D3F8002922F40012C3F80029C3F80E
:1026F000081BD3F8002B22F40012C3F8002B01367C
:102700006368B342E7D8D9F81C3043F00113C9F825
:102710001C30236BEBB1D9F8843043F00B03C9F8BC
:102720008430D9F8443043F00B03C9F84430D5F86D
:10273000003823F4FE63C5F8003804F57072217C7C
:10274000206801F027FD2268536903F48053536128
:1027500023E6D9F8143043F02B03C9F81430D9F824
:10276000103043F00B03C9F81030E0E7206801F0A7
:10277000F5FC2268D36823F47053D360206801F01D
:10278000F9F9B8B90023E3604FF40073636122687C
:10279000D36843F41053D360204604F0CCFD226884
:1027A000536903F400535361FEE500BF0A31544FEF
:1027B0000A30544F0323E3604023636100F07EFD41
:1027C000634B0344634A934205D82268D36843F4B9
:1027D0007053D360E0E7604B0344604A934205D8EE
:1027E0002268D36843F46053D360D5E75C4B03445D
:1027F0005C4A934205D82268D36843F45053D360AF
:10280000CAE7594B0344594A934205D82268D36812
:1028100043F44053D360BFE7554B0344554A9342BA
:1028200005D82268D36843F43053D360B4E7524BE1
:102830000344524A934205D82268D36843F4205394
:10284000D360A9E74E4B03444E4A934205D8226811
:10285000D36843F41053D3609EE74B4B03444B4A79
:10286000934205D82268D36843F40053D36093E7BA
:10287000474B0344474A934205D82268D36843F440
:10288000E053D36088E72268D36843F4C053D36031
:1028900082E747F6F0731E423FF49CAD4FEAC80A48
:1028A000AAEB08034FEA8309A1443609C6F30A02DA
:1028B000D9F80812284601F085FBC6F30A06D9F8B4
:1028C00008323344C9F80832D9F814321E44C9F822
:1028D00014627FE5082204F57071284601F072FB4E
:1028E000C6F30A164FEAC803A3EB08018A00224484
:1028F000D2F814321E44C2F814626BE5204604F08C
:1029000014FD2268536903F0080353616EE5F9B2C0
:10291000204604F045FD2268536903F48013536197
:102920006BE5F9B2204604F035FD2268536903F4E3
:102930000013536168E5204604F038FD22685369AE
:1029400003F08043536166E5204604F035FD6FE5F2
:10295000405327FFFF340C00401E1BFF3F420F0077
:1029600000DC0BFF7F4F1200808CF9FE1FD6130096
:1029700060B6E5FE5FE3160000D3CEFE3F771B0096
:10298000C05BB3FEBF91210000CA91FE1F753800E5
:10299000E05459FEDF9C410090F8BC33012B0DD070
:1029A00010B50446012380F8BC3380F83810006865
:1029B00001F077FB002084F8BC0310BD02207047B3
:1029C000F8B511F0800F28D101F00F06F500AF1B0C
:1029D000BC00274604F5FC74044404343E46064417
:1029E000002586F8FD5101F00F012170A260E3700F
:1029F000627802B1E180022B1ED090F8BC33012B2B
:102A00001DD00546012380F8BC332146006801F043
:102A1000C5F8002085F8BC03F8BD01F00F06F500ED
:102A2000AF1BBC0027463834044404343E460644F9
:102A3000012586F83D50D6E700232371DDE702200B
:102A4000EAE738B511F0800F21D101F00F05EA0057
:102A5000541BA3001C4603F5FC73034404332546B2
:102A60000544002285F8FD2101F00F01197090F84E
:102A7000BC23012A1AD00446012280F8BC2319463F
:102A8000006801F0D3F8002084F8BC0338BD01F0E1
:102A90000F04E200151BAB001D463833034404331A
:102AA0002C460444012284F83D20DDE70220EDE7B6
:102AB00070B501F00F05EE00711B8C0004F5FC747D
:102AC0000444211D761BB4000444C4F80822C4F851
:102AD00010320023C4F8143284F8FD3184F8FC511C
:102AE0000369012B06D065B1DAB2006801F07AF90A
:102AF000002070BDC5EBC506B4000444C4F80C2228
:102B0000F1E7DAB2006801F0D9F8F1E701F00F015E
:102B1000C1EBC1018B001844B0F81402704770B5C6
:102B200001F00F05EE00711B8C0038340444211DA8
:102B3000761BB4000444A26423650023636501236B
:102B400084F83D3084F83C500369012B06D05DB118
:102B5000DAB2006801F046F9002070BDC5EBC50689
:102B6000B4000444E264F2E7DAB2006801F0A6F8C7
:102B7000F2E738B501F00F0543689D4236D811F0F1
:102B8000800F20D1CA00541AA3001C4603F5FC7321
:102B90000344043322460244002182F8FD1101223D
:102BA0009A701D7090F8BC23012A21D0044601229E
:102BB00080F8BC231946006801F018FA7DB10020A6
:102BC00084F8BC0313E0EA00511B8B00194638332C
:102BD000034404330144012281F83D20DFE704F57A
:102BE0007072217C206801F0D5FAE8E7012038BD39
:102BF0000220FCE710B501F00F0443689C422CD87A
:102C000011F0800F1DD1E3001A1B91000A4601F557
:102C1000FC71014404310244002382F8FD31002399
:102C20008B700C7090F8BC33012B18D00446012334
:102C300080F8BC33006801F006FA002084F8BC0379
:102C40000CE0E3001A1B91000A46383101440431BC
:102C50000244012382F83D30E1E7012010BD02204B
:102C6000FCE730B40468606A29B10D46A36A00EB42
:102C7000134000230CE040EA0240A06212E003F19E
:102C8000400104EB8101496800EB11400133DBB2E4
:102C9000691E8B42F3D340EA024005F13F0104EB89
:102CA00081014860002030BC7047036859620020F1
:102CB00070470000024603680121C0F8F8130020A5
:102CC00082F8F0039A6942F000629A61596D024AF3
:102CD0000A435A65704700BF03000010002800F047
:102CE000DB8170B582B00446036813F0010F29D070
:102CF000A24B9B6803F00C03042B1AD09F4B9B68DC
:102D000003F00C03082B0FD06368B3F5803F40D06D
:102D1000002B54D1994B1A6822F480321A601A6839
:102D200022F480221A6039E0944B5B6813F4800F20
:102D3000EAD0924B1B6813F4003F03D06368002B6A
:102D400000F0AC81236813F0020F75D08B4B9B68A9
:102D500013F00C0F5ED0894B9B6803F00C03082B1B
:102D600053D0E368002B00F08A80844A136843F054
:102D700001031360FEF772FB0546804B1B6813F0DE
:102D8000020F73D1FEF76AFB401B0228F5D903201E
:102D900087E17A4A136843F48033136063682BB386
:102DA000FEF75CFB0546754B1B6813F4003FC9D169
:102DB000FEF754FB401B6428F5D9032071E1B3F5FD
:102DC000A02F09D06D4B1A6822F480321A601A685D
:102DD00022F480221A60E1E7684B1A6842F48022EC
:102DE0001A601A6842F480321A60D7E7FEF736FBA1
:102DF0000546624B1B6813F4003FA3D0FEF72EFB81
:102E0000401B6428F5D903204BE15C4B5B6813F44D
:102E1000800FA6D1594B1B6813F0020F04D0E36852
:102E2000012B01D001203CE1544A136823F0F80340
:102E3000216943EAC1031360236813F0080F46D0E9
:102E4000636983B34D4A536F43F001035367FEF741
:102E500005FB0546494B5B6F13F0020F37D1FEF7B8
:102E6000FDFA401B0228F5D903201AE1434A1368F2
:102E700023F0F803216943EAC1031360DCE73F4A0A
:102E8000136823F001031360FEF7E8FA05463B4B95
:102E90001B6813F0020FCFD0FEF7E0FA401B0228A8
:102EA000F5D90320FDE0354A536F23F00103536742
:102EB000FEF7D4FA0546314B5B6F13F0020F06D0D4
:102EC000FEF7CCFA401B0228F5D90320E9E023687D
:102ED00013F0040F7ED0294B1B6C13F0805F1ED1C2
:102EE000264B1A6C42F080521A641B6C03F080531C
:102EF0000193019B0125224B1B6813F4807F10D0A6
:102F0000A368012B21D0002B3CD11C4B1A6F22F05F
:102F100001021A671A6F22F004021A671AE00025EC
:102F2000E9E7174A136843F480731360FEF796FAD3
:102F30000646134B1B6813F4807FE1D1FEF78EFA2F
:102F4000801B6428F5D90320ABE00C4A136F43F0D3
:102F500001031367A3685BB3FEF780FA0646074BCD
:102F60001B6F13F0020F34D1FEF778FA801B41F289
:102F700088339842F3D9032093E000BF0038024021
:102F800000700040052B09D0484B1A6F22F0010257
:102F90001A671A6F22F004021A67DBE7434B1A6FB5
:102FA00042F004021A671A6F42F001021A67D1E771
:102FB000FEF754FA06463D4B1B6F13F0020F08D084
:102FC000FEF74CFA801B41F288339842F3D9032074
:102FD00067E0F5B9A369002B62D0344A926802F029
:102FE0000C02082A5FD0022B19D0304A136823F054
:102FF00080731360FEF732FA04462C4B1B6813F003
:10300000007F47D0FEF72AFA001B0228F5D90320DB
:1030100047E0264A136C23F080531364DAE7234A0F
:10302000136823F080731360FEF718FA05461F4BF0
:103030001B6813F0007F06D0FEF710FA401B022831
:10304000F5D903202DE0E369226A1343626A43EA5B
:103050008213A26A5208013A43EA0243E26A43EA4F
:10306000026343F00053114A5360136843F08073C6
:103070001360FEF7F3F904460C4B1B6813F0007F56
:1030800006D1FEF7EBF9001B0228F5D9032008E072
:10309000002006E0002004E001207047012000E04D
:1030A000002002B070BD0120FBE700BF00380240E5
:1030B000264B9B6803F00C03042B44D0082B01D053
:1030C000234870472DE9F04B204B5A6802F03F022D
:1030D0005B6813F4800F13D01C4B5968C1F388113F
:1030E00000231C48A1FB0001FDF76EFD174B5B6838
:1030F000C3F3014301335B00B0FBF3F0BDE8F08B99
:10310000124B5B68C3F388131E4600275C01002541
:10311000E41A65EB0705A90141EA9461A001001BCF
:1031200061EB0501CB0043EA5073C400A01943EBE7
:1031300007018B0243EA905384022046194600237C
:10314000FDF742FDD2E70348704700BF0038024058
:103150000024F40040787D01002800F0A28070B5C2
:103160000446524B1B6803F00F038B420CD24F4AAC
:10317000136823F00F030B431360136803F00F036E
:103180008B4201D0012070BD236813F0020F17D0CD
:1031900013F0040F04D0464A936843F4E05393605D
:1031A000236813F0080F04D0414A936843F4604346
:1031B00093603F4A936823F0F003A0680343936051
:1031C0000D46236813F0010F31D06368012B20D026
:1031D000022B25D0364A126812F0020F63D0344910
:1031E0008A6822F0030213438B60FEF737F9064624
:1031F0002F4B9B6803F00C036268B3EB820F16D071
:10320000FEF72CF9801B41F288339842F0D9032055
:10321000B9E7274A126812F4003FE0D10120B2E773
:10322000234A126812F0007FD9D10120ABE71F4B6F
:103230001B6803F00F03AB420CD91C4A136823F040
:103240000F032B431360136803F00F03AB4201D04D
:10325000012098E7236813F0040F06D0144A9368FE
:1032600023F4E053E1680B439360236813F0080FE5
:1032700007D00F4A936823F46043216943EAC103EE
:103280009360FFF715FF0A4B9B68C3F30313094ACA
:10329000D35CD840084B18600020FEF7A3F800204C
:1032A00071E70120704701206DE700BF003C02403C
:1032B00000380240B0EC000818010020014B1868EB
:1032C000704700BF18010020F0B583B004460368C2
:1032D00013F0010F0CD0AF4B9A6822F400029A60F1
:1032E0009A68416B0A439A60436BC3B1002600E0C1
:1032F0000026236813F4002F15D0A64AD2F88C308C
:1033000023F44013E16B0B43C2F88C30E36BB3F54D
:10331000801F06D0002B00F01B81002504E0012651
:10332000E7E70126F6E70025236813F4801F0FD096
:10333000984AD2F88C3023F44003216C0B43C2F836
:103340008C30236CB3F5800F00F0048103B90125A4
:10335000236813F0807F00D0012613F0200F40F087
:10336000FB80236813F0100F0CD08A4BD3F88C200D
:1033700022F08072C3F88C20D3F88C20A16B0A4312
:10338000C3F88C20236813F4804F08D0814AD2F808
:10339000903023F44033616E0B43C2F890302368C1
:1033A00013F4004F08D07B4AD2F8903023F4402326
:1033B000A16E0B43C2F89030236813F4803F08D00D
:1033C000744AD2F8903023F44013E16E0B43C2F8F4
:1033D0009030236813F4003F08D06E4AD2F8903042
:1033E00023F44003216F0B43C2F89030236813F09D
:1033F000400F08D0674AD2F8903023F00303616C85
:103400000B43C2F89030236813F0800F08D0614A54
:10341000D2F8903023F00C03A16C0B43C2F890302B
:10342000236813F4807F08D05A4AD2F8903023F0F2
:103430003003E16C0B43C2F89030236813F4007F33
:1034400008D0544AD2F8903023F0C003216D0B43CA
:10345000C2F89030236813F4806F08D04D4AD2F838
:10346000903023F44073616D0B43C2F890302368B1
:1034700013F4006F08D0474AD2F8903023F4406329
:10348000A16D0B43C2F89030236813F4805F08D01D
:10349000404AD2F8903023F44053E16D0B43C2F818
:1034A0009030236813F4005F08D03A4AD2F8903085
:1034B00023F44043216E0B43C2F89030236813F489
:1034C000800F08D0334AD2F8903023F08063A16F88
:1034D0000B43C2F89030236813F4001F0DD02D4A1F
:1034E000D2F8903023F00063E16F0B43C2F89030C4
:1034F000E36FB3F1006F00F09980236813F0080FB9
:1035000000D0012513F4802F08D0224AD2F8903041
:1035100023F04073616F0B43C2F89030236813F4BB
:10352000000F09D01B4AD2F8903023F08053D4F812
:1035300080100B43C2F89030002E79D12368B3F18C
:10354000007F75D0002D40F00681002003B0F0BD53
:103550000125E9E60126F9E60E4B1A6C42F080528D
:103560001A641B6C03F080530193019B0A4A136891
:1035700043F480731360FDF771FF0746064B1B6829
:1035800013F4807F0AD1FDF769FFC01B6428F5D9C9
:103590000320DBE70038024000700040B34B1B6F94
:1035A00013F4407315D0226B02F440729A4210D08B
:1035B000AE4B1A6F22F44072196F41F480311967D3
:1035C000196F21F4803119671A671B6F13F0010F0F
:1035D00012D1236B03F44072B2F5407F1DD0A34A91
:1035E000936823F4F8139360A0490B6F226BC2F326
:1035F0000B0213430B67B4E6FDF730FF07469B4B06
:103600001B6F13F0020FE4D1FDF728FFC01B41F23E
:1036100088339842F3D9032098E79448826822F4CB
:10362000F812934919400A438260DDE7012564E7F7
:103630008E4A136823F080631360FDF70FFF064680
:103640008A4B1B6813F0006F06D0FDF707FF801B45
:103650006428F5D9032079E7236813F0010F13D00C
:10366000636B8BB9814AD2F88430D2F884106068D9
:1036700003F4403343EA801301F070610B43A16807
:1036800043EA0173C2F88430236813F4002F03D097
:10369000E26BB2F5801F06D013F4801F1ED0236C9E
:1036A000B3F5800F1AD1714AD2F88430D2F8841061
:1036B000606803F4403343EA8013E06843EA006340
:1036C00001F0E0410B43C2F88430D2F88C3023F093
:1036D0001F03616A01390B43C2F88C30236813F071
:1036E000807F11D0614AD2F88400D2F884106668D5
:1036F00023691B0443EA861300F07060034301F062
:10370000E0410B43C2F88430236813F0007F0DD0F2
:10371000626823691B0443EA8213E26843EA026396
:10372000A26843EA0273514AC2F884304F4A1368D0
:1037300043F080631360FDF791FE06464B4B1B6818
:1037400013F0006F7FF4FEAEFDF788FE801B642847
:10375000F4D90320FAE6454A136823F08053136036
:10376000FDF77CFE0546414B1B6813F0005F06D059
:10377000FDF774FE401B6428F5D90320E6E62368B4
:1037800013F4002F01D0E26B22B113F4801F1DD07F
:10379000236CDBB9354AD2F88830D2F888106069DA
:1037A00003F4403343EA8013A06943EA006301F065
:1037B000E0410B43C2F88830D2F88C3023F4F85340
:1037C000A16A013943EA0123C2F88C30236813F45B
:1037D000001F03D0E36FB3F1006F31D0236813F003
:1037E000080F19D0214AD2F88810D2F888306069C1
:1037F00003F4403343EA801301F070610B43E16945
:1038000043EA0173C2F88830D2F88C3023F4403395
:10381000E16A0B43C2F88C30144A136843F08053BA
:103820001360FDF71BFE0446104B1B6813F0005F8E
:1038300019D1FDF713FE001B6428F5D9032085E696
:103840000A4AD2F88800D2F888106569236A1B04F6
:1038500043EA851300F07060034301F0E0410B433D
:10386000C2F88830BAE7002070E600BF0038024096
:10387000FFFCFF0F002301330C4A934211D8026969
:10388000002AF8DA036943F00103036100230133DE
:10389000064A934207D8026912F0010FF7D10020BF
:1038A0007047032070470320704700BF400D03009E
:1038B00084B010B5044603A880E80E00089B012BD5
:1038C0001ED1A36B23F48033A363E268164B13402D
:1038D000E360E36823F44013E3600F9B012B0AD0FD
:1038E0002046FFF7C7FF069B012B14D00020BDE840
:1038F000104004B07047E36843F48013E360EFE7DF
:10390000E36843F04003E3602046FFF7B3FF4FF462
:103910008033A363E7E7A36843F00603A360A368CB
:1039200043F02003A360E1E7BFFFBDFF836843F0DE
:103930000103836000207047836823F001038360E4
:103940000020704708B5C36823F0C043C360012955
:1039500009D069B9C36843F08043C3603220FDF7E2
:1039600083FD002008BDC36843F00053C360F5E742
:103970000120F7E7890141F02001016100230133B3
:10398000054A934205D8026912F0200FF7D10020B2
:1039900070470320704700BF400D030010230361F0
:1039A00000230133054A934205D8026912F0100F33
:1039B000F7D1002070470320704700BF400D03007F
:1039C000D0F800381943C0F80018002070470000F4
:1039D00084B0F8B5044607A880E80E002546002309
:1039E00006E003F1400204EB820200215160013342
:1039F0000E2BF6D9A36B43F40013A363119F5FB999
:103A0000A36B23F40013A363236843F040032360F4
:103A1000236843F0800323600023C4F8003E04F5CC
:103A20000066D4F80038C4F800380C9B012B08D08D
:103A3000032B17D1099B83B900212046FFF7C0FF54
:103A400014E0099B23B900212046FFF7B9FF0DE0E0
:103A500001212046FFF7B4FF08E001212046FFF7CF
:103A6000AFFF03E003212046FFF7AAFF1021204605
:103A7000FFF780FF2046FFF791FF0023336173615A
:103A8000F3610AE0C3B94FF00060C2F800090022F8
:103A90000A614FF67F328A6001330799994210D943
:103AA00005EB431202F51061D2F800090028E9DBAA
:103AB0000020C2F80009EAE74FF09040C2F8000980
:103AC000E5E700230AE0CBB14FF0904CC2F800CB01
:103AD000002202614FF67F3282600133994212D98F
:103AE00005EB431202F53060D2F800CBBCF1000FB9
:103AF000E9DB4FF0000CC2F800CBE9E74FF0006CB7
:103B0000C2F800CBE4E7336923F4807333610A9B86
:103B1000012B1AD00022A2616FF0804262611BB9B2
:103B2000A36943F01003A361A2690E4B1343A36181
:103B30000D9B1BB1A36943F00803A361012F0BD0B8
:103B40000020BDE8F84004B07047074A3263316B8B
:103B5000064A0A433263DDE7A269054B1343A361BA
:103B6000EEE700BF00383C80000180000300010048
:103B700004000040D0F8083813F0060309D0062BE3
:103B800018BF022B07D0042B01D000207047022061
:103B900070470020704703207047000070B40B7816
:103BA0004A78012A20D0D0F81C2803F00F060124FF
:103BB000B44042EA0442C0F81C2800EB4310D0F89D
:103BC000003B13F4004F0CD1D0F8002B8B68C3F3EB
:103BD0000A03C97843EA81431343134A1A43C0F8DE
:103BE000002B002070BC7047D0F81C4803F00F0673
:103BF000B24092B22243C0F81C2800EB4310D0F828
:103C0000002912F4004FECD1D0F800498A68C2F3C1
:103C10000A02C97842EA814242EA83532343024AB4
:103C20001A43C0F80029DCE70080001070B40B785C
:103C30004A78012A1FD0D0F83C5803F00F0601241F
:103C400004FA06F625EA0645C0F83C58D0F81C5898
:103C5000097801F00F018C4025EA0444C0F81C48A3
:103C600000EB4310D0F8002B124B1340C0F8003B80
:103C7000002070BC7047D0F83C6803F00F0402FAD3
:103C800004F4A4B226EA0404C0F83C48D0F81C4866
:103C9000097801F00F018A4092B224EA0202C0F8CA
:103CA0001C2800EB4310D0F80039034A1A40C0F832
:103CB0000029DDE70078F3EF007833EC70B40B787F
:103CC0004C78012C24D000EB431000F530631D69C3
:103CD000384C2C401C611D69374C2C401C614C69D0
:103CE0000CB18C684C611C6944F400241C611C6993
:103CF0008D68C5F312052C431C61012A57D0D0F8FA
:103D0000003B43F00443C0F8003B002070BC704708
:103D10004C6954BB00EB4314D4F81069264D354070
:103D2000C4F81059D4F8105945F40025C4F81059B6
:103D3000D4F810691F4D3540C4F81059012A30D00D
:103D40004A694AB1D0F83428097801F00F040121FA
:103D5000A1400A43C0F8342800EB4310D0F80029F2
:103D600042F00442C0F80029CFE700EB431404F509
:103D7000106426690F4D3540256126690E4D35408A
:103D800025614E698D68AE4200D94D61256945F4C3
:103D90000025256125694E69C6F312063543256164
:103DA000CCE700EB43120969C2F81419D4E7CA68DA
:103DB0005A61A4E70000F8FFFFFF07E070B49DF828
:103DC0000C4064B903339D0807E000EB023303F5B0
:103DD000805351F8046B1E600134AC42F5D30020CF
:103DE00070BC7047F0B583B00B784C78012C29D0AB
:103DF00000EB431303F5306426696F4D35402561B0
:103E000026696E4D354025614D69002D40F0A88032
:103E100025698E68C6F3120635432561256945F488
:103E200000252561012A00F0B080CA78012A00F03F
:103E3000AF80D3F8002B42F00442C3F8002B0020DF
:103E400003B0F0BD4C6934BB00EB4314D4F81069E7
:103E50005A4D3540C4F81059D4F8105945F400258E
:103E6000C4F81059D4F81069534D3540C4F81059AE
:103E7000012A42D0CC78012C44D04C69002C41D08E
:103E8000D0F834480D7805F00F060125B5402C43D5
:103E9000C0F8344836E000EB4314D4F81069464DBE
:103EA0003540C4F81059D4F81069444D3540C4F871
:103EB0001059D4F810694D698F683D44013DB5FB38
:103EC000F7F53F4F07EAC5453543C4F81059D4F814
:103ED00010594E69C6F312063543C4F8105904F55B
:103EE0001064CD78012DC3D1256925F0C045256129
:103EF000256945F000552561BAE700EB43140D69CB
:103F0000C4F81459CC78012C13D000EB4313D3F828
:103F1000004944F00444C3F80049CB78012B8ED10A
:103F200014460B46C9681A789B8A0094FFF746FF2F
:103F300085E7D0F8084814F4807F08D100EB4315DA
:103F4000D5F8004944F00054C5F80049DDE700EB1E
:103F50004315D5F8004944F08054C5F80049D4E72A
:103F60008E683544013DB5FBF6F52669144F07EA26
:103F7000C5473E43266127698E68ADB206FB05F54D
:103F8000C5F312053D4325614CE7CA6862614CE701
:103F9000D0F8082812F4807F06D1D3F8002B42F025
:103FA0000052C3F8002B44E7D3F8002B42F08052B4
:103FB000C3F8002B3DE700BF0000F8FFFFFF07E05C
:103FC0000000F81F03329208002393420CD210B471
:103FD00000F58054246841F8044B01339342F7D331
:103FE00008465DF8044B7047084670470B784A78DE
:103FF000012A14D000EB4310D0F8002B002A06DB76
:104000002BB1D0F8003B23F08043C0F8003BD0F840
:10401000003B43F40013C0F8003B0020704700EB66
:104020004310D0F80029002A06DB2BB1D0F8003964
:1040300023F08043C0F80039D0F8003943F400136E
:10404000C0F80039E9E70B784A78012A0ED000EB76
:104050004310D0F8003B23F40013C0F8003BCB78AA
:10406000023BDBB2012B15D90020704700EB431057
:10407000D0F8003923F40013C0F80039CB78023BA4
:10408000DBB2012BF0D8D0F8003943F08053C0F8F0
:104090000039E9E7D0F8003B43F08053C0F8003B1B
:1040A000E2E7D0F8003823F4FE63C0F80038D0F817
:1040B0000038090101F4FE610B43C0F8003800200C
:1040C000704708B5D0F8043823F00203C0F804386C
:1040D0000320FDF7C9F9002008BD08B5D0F8043861
:1040E00043F00203C0F804380320FDF7BDF90020B7
:1040F00008BD4269806910407047D0F8183800F553
:104100000060C0691840000C7047D0F8183800F5FE
:104110000060C069184080B2704700EB4111D1F8CF
:10412000082B00F5006040691040704710B4D0F8CB
:104130001048D0F8343801F00F02D340DB01DBB275
:10414000234300EB411000F51060806818405DF8D3
:10415000044B7047406900F001007047D0F8002917
:104160000B4B1340C0F8003900F500639A6802F069
:104170000602042A05D05A6842F480725A60002070
:104180007047D0F8002942F00302C0F80029F2E796
:1041900000F8FFFF10B40024C0F8104BD0F8104B0B
:1041A00044F40024C0F8104BD0F8104B44F018042D
:1041B000C0F8104BD0F8104B44F0C044C0F8104B7E
:1041C000012903D000205DF8044B7047C0F8142B80
:1041D0004FF08023C0F8003BF4E710B5D0F89042D0
:1041E000D0F894325BB194F80002FF2807D09B68A6
:1041F00094F8012221469847FF2384F800320020DA
:1042000010BD0000432303800048704708000020D1
:1042100043230380004870474C0000204323038061
:1042200000487047900000200A2303800048704730
:10423000D400002038B50446D0F8905203F086F937
:10424000C5F80C02D4F890324BB1D4F89432DB6844
:1042500005F50371D5F804029847002038BD022007
:10426000FCE770B5D0F89022D0F89852FAB101EB83
:104270008104A3000344DB694BB1C1EBC106B40068
:1042800025446D6CB3FBF5F405FB14331BB1002022
:10429000C2F8140270BD01EB8102930003440024B4
:1042A000DC612346224603F035F92046F2E702207E
:1042B000F0E770B582B005460C46D0F89062002356
:1042C0008DF80730ADF804300B7813F0600227D07A
:1042D000202A56D1CA883AB9D0F894329B68002275
:1042E0004878984700204FE013F0800F0CD0D0F8AA
:1042F00094329B68314660789847E2883146284678
:1043000000F09FFD00203FE04B7886F800328B796B
:1043100086F80132CA88314600F0A8FD002033E05B
:104320004B780A2B14D00B2B21D01BB100F068FA6C
:10433000022029E090F87432032B05D1022201A952
:1043400000F07FFD00201FE000F05AFA02201BE081
:1043500090F87432032B06D101220DF1070100F011
:1043600070FD002010E000F04BFA02200CE090F805
:104370007432032B01D1002006E000F041FA022044
:1043800002E000F03DFA022002B070BD38B50446EC
:10439000812103F070F80025E5620121204603F039
:1043A0006AF8C4F858518221204603F064F8256465
:1043B000D4F890324BB1D4F894325B689847D4F873
:1043C00090020AF043F8C4F89052002038BD38B586
:1043D0000446037CA3BB4FF400730222812103F047
:1043E00039F80125E5624FF4007302222946204680
:1043F00003F030F8C4F858510823032282212046E4
:1044000003F028F8012323644FF407700AF016F82C
:104410000546C4F8900268B3D4F894321B689847F4
:104420000023C5F81432C5F81832237CC3B14023E9
:10443000D5F804220121204603F07AF8002038BD87
:1044400040230222812103F005F80125E562402383
:1044500002222946204602F0FDFFC4F85851CBE75E
:104460004FF40073D5F804220121204603F060F8D0
:104470000020E4E70120E2E719B1C0F8941200201F
:10448000704702207047D0F89032C3F80812C3F882
:10449000102200207047D0F89032C3F80412002098
:1044A0007047D0F890229AB108B5037C3BB1402305
:1044B000D2F80422012103F03BF8002008BD4FF49C
:1044C0000073D2F80422012103F032F80020F5E74E
:1044D0000220704798B108B50346D0F88C0210B19D
:1044E0000020C3F88C0209B1C3F8881218460123D2
:1044F00080F87432027002F065FF002008BD0220CF
:10450000704719B1C0F88C12002070470220704724
:1045100008B502F091FF002008BD08B5D0F88C3234
:1045200033B11B68984708B9002008BD0220FCE79A
:104530000220FAE708B5D0F88C325B689847002073
:1045400008BD38B5044600F52075284600F044F94A
:104550000123C4F86C32B4F88632C4F8703294F88F
:10456000801201F01F03012B0ED03BB1022B10D0A3
:1045700001F08001204602F08CFF03E0294620462E
:1045800000F0C1FA002038BD2946204600F0EFFABD
:10459000F8E72946204600F01AFBF3E710B5044679
:1045A00089BB1046D4F86C32032B03D0052B24D0E2
:1045B000002034E0D4F84C31D4F8502193420DD986
:1045C0009B1AC4F84C319A4206D99AB20146204649
:1045D00000F05BFC002022E092B2F7E7D4F88C32C6
:1045E0001B692BB194F87422032A01D12046984705
:1045F000204600F052FC002011E00021204602F08D
:1046000048FF00200BE00A46D0F88C329B693BB192
:1046100090F87412032905D111469847002010BD67
:104620000220FCE70220FAE710B50446002955D124
:104630001046D4F86C32022B09D0002B18BF042B83
:1046400043D094F87832012B44D0002052E0236A02
:10465000626A93421DD8E169B1FBF2F302FB1313C6
:104660002BB98A4203D8D4F8703299421FD3D4F8B8
:104670008C32DB682BB194F87422032A01D12046D6
:1046800098478021204602F004FF204600F010FCED
:10469000D7E79A1A226292B20146204600F0DEFB6A
:1046A00000231A461946204602F042FFC9E70022BD
:1046B0001146204600F0D2FB0021C4F870120B46D0
:1046C0000A46204602F034FFBBE78021204602F074
:1046D000E0FEB6E7002084F878020BE00A46D0F846
:1046E0008C325B693BB190F87412032905D11146F5
:1046F0009847002010BD0220FCE70220FAE770B5C1
:10470000044640230022114602F0A4FE0125C4F80D
:1047100044514026C4F8506133460022802120468F
:1047200002F098FEA561666284F874520023C4F812
:104730006C326360C4F87C32D4F890322BB1D4F878
:104740008C325B68002120469847002070BD0174C0
:104750000020704790F8743280F87532042380F896
:1047600074320020704790F8753280F8743200205F
:10477000704708B590F87432032B01D0002008BDB3
:10478000D0F88C32DB69002BF8D09847F6E7002090
:104790007047002070470020704708B5012280F85C
:1047A0007422D0F88C22526801799047002008BD0D
:1047B000002302E00133DBB201300278002AF9D194
:1047C0001846704708B54B88012B00D008BDC0F8CB
:1047D0007C3200F062FBF9E70B7803704B78437092
:1047E0008B78CA7803EB022343800B794A7903EB79
:1047F000022383808B79CA7903EB0223C38070473D
:1048000010B50446802102F044FE0021204602F04B
:1048100040FE10BD30B583B005460C464A88130AE9
:10482000013B0E2B00F29180DFE803F01B23378F52
:104830008F73808F8F8F8F8F8F8F0800D0F8883283
:10484000DB690DF10601007C9847BDF8062012B126
:10485000E388002B7DD1E388002B00F0848003B037
:1048600030BDD0F888321B680DF10601007C9847F6
:10487000EBE7037C43B9D0F88C329B6A0DF106005C
:10488000984702234370E0E7D0F88C32DB6A0DF1E1
:104890000600984702234370D7E7D2B2052A34D8DE
:1048A000DFE802F0030B131B232BD0F888325B6880
:1048B0000DF10601007C9847C7E7D0F888329B6865
:1048C0000DF10601007C9847BFE7D0F88832DB681D
:1048D0000DF10601007C9847B7E7D0F888321B69D4
:1048E0000DF10601007C9847AFE7D0F888325B698C
:1048F0000DF10601007C9847A7E7D0F888329B6944
:104900000DF10601007C98479FE72146FFF778FFED
:10491000A5E7037C33B9D0F88C325B6B0DF1060050
:10492000984792E72146FFF76BFF98E7037C43B96E
:10493000D0F88C321B6B0DF10600984707234370AB
:1049400083E72146FFF75CFF89E72146FFF758FF21
:1049500085E79A4228BF1A46ADF806200146284648
:1049600000F06FFA77E7284600F097FA77E738B556
:1049700004468B88F3B9CB88E3B94B887F2B19D8D1
:1049800003F07F0590F87432032B0CD080F8765238
:10499000294602F0B1FD204600F07FFA35B102232E
:1049A00084F8743209E0FFF72BFF06E0012384F856
:1049B000743202E02046FFF723FF38BD38B50446C5
:1049C0000D468978284B197001290ED890F8743259
:1049D000022B0ED0032B21D02946FFF711FF224BCB
:1049E00019782046FFF7A6FD02E02946FFF708FFE9
:1049F00038BD81B14160032380F87432FFF78DFD2B
:104A0000022803D0204600F048FAF1E72946204664
:104A1000FFF7F6FEECE700F040FAE9E789B14368FA
:104A200099421DD0D9B2FFF785FD0F4B197861600F
:104A30002046FFF772FD02280DD0204600F02DFA27
:104A4000D6E7022380F874324160FFF773FD2046F9
:104A500000F023FACCE729462046FFF7D1FEC7E74E
:104A600000F01BFAC4E700BF1002002008B5CB8895
:104A7000012B0BD190F874329BB1022B09D9032B77
:104A80000FD10122011D00F0DCF901E0FFF7B8FEB3
:104A900008BD0146002341F8083F012200F0D1F98A
:104AA000F6E7FFF7ADFEF3E708B590F87432013B87
:104AB000022B12D8CB88022B0CD10123C360D0F873
:104AC0007C320BB10323C360022200F10C0100F021
:104AD000B8F908BDFFF794FEFBE7FFF791FEF8E792
:104AE00008B590F87432013B022B09D84B88012B92
:104AF00000D008BD0023C0F87C3200F0CEF9F8E702
:104B0000FFF77EFEF5E708B50B7803F06003202B76
:104B100005D0402B03D043B1FFF772FE03E0D0F87D
:104B20008C329B689847002008BD4B78092B1BD816
:104B3000DFE803F011171A141A08051A0E0BFFF715
:104B400069FEF0E7FFF713FFEDE7FFF737FFEAE74E
:104B5000FFF78CFFE7E7FFF7A7FFE4E7FFF732FE79
:104B6000E1E7FFF7BDFFDEE7FFF74AFEDBE738B519
:104B700005460C460B7803F06003202B06D0402B33
:104B800004D01BB1FFF73CFE002038BD95F874320D
:104B9000013B022B16D82379012B0ED8D5F88C3285
:104BA0009B68214628469847E388002BECD10028D3
:104BB000EAD1284600F071F9E6E721462846FFF7DA
:104BC0001FFEE1E721462846FFF71AFEDCE738B56D
:104BD00004468A880B7803F06003202B08D0D0B2FB
:104BE000402B05D05BB12046FFF70AFE002005E010
:104BF000D4F88C329B6820469847002038BD202B83
:104C000005D1D4F88C329B6820469847F6E74B785C
:104C1000012B3CD0002B6DD0032B40F0EF8094F89B
:104C20007432022B06D0032B1BD02046FFF7E8FD81
:104C30000020E3E7B0F1800318BF0123002808BF7C
:104C400000234BB10146204602F023FC8021204680
:104C500002F01FFC0020D1E72046FFF7D1FD002025
:104C6000CCE74B884BB9B0F1800318BF0123002873
:104C700008BF00230BB1CB8823B1204600F00DF90B
:104C80000020BBE70146204602F003FCF5E794F85C
:104C90007432022B06D0032B1BD02046FFF7B0FD49
:104CA0000020ABE7B0F1800318BF0123002808BF44
:104CB00000234BB10146204602F0EBFB8021204649
:104CC00002F0E7FB002099E72046FFF799FD00205E
:104CD00094E74B88002B40F0968010F07F0F04D1B2
:104CE000204600F0DAF8002088E70146204602F06E
:104CF000DEFBF5E794F87432022B06D0032B2ED09E
:104D00002046FFF77DFD002078E7B0F1800318BF53
:104D10000123002808BF002393B912F0800F14D19B
:104D200000F07F0000EB8000830003F5A073E11822
:104D300000250D600222204600F083F828465DE73A
:104D40002046FFF75DFD002058E700F07F0000EBF4
:104D50008000830003F1100121440431E8E752B2DE
:104D6000002A23DB00F00F0303EB83039D0025449F
:104D7000D5F8443143B3002A2BDB00F07F0202EB6D
:104D80008202930003F5A073E518802814BF002366
:104D90000123002808BF01232BB300232B6002222C
:104DA0002946204600F04DF8002027E700F00F03C9
:104DB00003EB83039D002544AB69002BDBD1204628
:104DC000FFF71EFD002019E72046FFF719FD002020
:104DD00014E700F07F0202EB8202930003F110055A
:104DE00025440435D1E70146204602F06EFB10B1A0
:104DF00001232B60D3E700232B60D0E72046FFF789
:104E0000FFFC0020FAE60020F8E6C8B170B50D46B8
:104E100016460446FFF7CCFC013040003080287075
:104E200003236B70022307E001345A1CD2B2E95409
:104E30000233DBB20021A95421780029F4D170BDDE
:104E4000704710B513460222C0F86C22C36103629A
:104E50000A46002102F05EFB002010BD08B5134693
:104E60000A46002102F056FB002008BD10B513468B
:104E70000322C0F86C22C0F84831C0F84C310A4611
:104E8000002102F055FB002010BD08B513460A466C
:104E9000002102F04DFB002008BD08B50423C0F836
:104EA0006C3200231A46194602F034FB002008BD7C
:104EB00008B50523C0F86C3200231A46194602F0E3
:104EC00037FB002008BD000008B54FF4C831034887
:104ED00006F006FA024805F075FD08BD1402002030
:104EE000B4ED00087047000030B5A3B000241D9455
:104EF0001E941F94209421946822214603A809F04F
:104F0000D1FA234622461D491D4805F0F1FC05460D
:104F10004FF488724FF4F071204604F01FFB4FF4F9
:104F200088724FF4F071204604F000FB1F941DA915
:104F3000284604F09AFA134B0B93134B0C93134B24
:104F40000E93134B134A03A9284604F0ACFA40F61B
:104F50007473009392234FF4F0722146204605F0BB
:104F600073F840F6037300934FF487734FF488721D
:104F70002146012005F068F823B030BD8C060108F9
:104F80004405010861100008B9100008111100085B
:104F9000718E0008D5870008012906D108B5FCF7F5
:104FA000C3F8FCF7D7F9002008BD4FF0FF30704779
:104FB00008B50B464FF450724FF4105101F060FBEE
:104FC00008BD70B582B004460E46002373B901AB2C
:104FD00001224FF40041204601F052FB0346002815
:104FE00049D1BDF8043003F00803EFE70025042D94
:104FF0008CBF00220122002B14BF134600231BB3D9
:1050000030224FF40041204601F060FB0346B0F12E
:10501000FF3F30D033464FF450724FF4806120464A
:1050200001F02EFB034630BB01AB01224FF40041DF
:10503000204601F025FB0346E8B9BDF8043003F033
:1050400008030135EDB2D2E7042D17D80DF10603A0
:10505000012248F20D01204601F012FBBDF8063096
:10506000A6F88036BDF8042002F00102A6F88226D8
:10507000034600B91346184602B070BD6FF007032F
:10508000F9E7000000000000F8B52DED048B0C4698
:10509000B0F8543608EE103AB8EE488ADFED2E7AB2
:1050A000B4EEE78AF1EE10FA03DDDFED2C7A38EE8C
:1050B000678AB0F88056C5F3812594F82400FBF781
:1050C000E9F99FED219B41EC110BB0EE490AF0EE9E
:1050D000690A08F019F857EC106B2846FBF7EAF953
:1050E00041EC110BB0EE490AF0EE690A08F00CF839
:1050F00053EC102B30463946FBF770FBFBF714FDE1
:1051000007EE900A68EE277AB4F9023008EE103AFA
:10511000B8EEC88A37EEC88AB4F9003007EE903A84
:10512000F8EEE77AC8EE277A17EE900AFBF7D4F983
:1051300007A3D3E90023FBF771F8FBF7F5FC00EEBA
:10514000100ABDEC048BF8BD000000000000004018
:105150006666666666660A4000FEFF460000804797
:105160002DE9F0412DED028B05460C46FFF78CFF33
:1051700010EE108AB5F8403607EE903AF8EE677AEE
:105180009FED337AF4EEC77AF1EE10FA03DD9FED6E
:10519000317A77EEC77AB5F8003607EE103AB8EEF6
:1051A000477ADFED2B6AB4EEE67AF1EE10FA03DD12
:1051B000DFED286A37EE667AD4ED046A66EEA76AF8
:1051C00036EE877A87EE878ADFED237A28EE278A04
:1051D0006068FBF781F906460F464046FBF77CF90D
:1051E00019A3D3E90023FBF717F802460B46304614
:1051F0003946FBF7C9F90022184BFBF70FF80646B2
:105200000F4618EE100AFBF767F932463B46FBF7EC
:10521000E5FA06460F46A089FBF74CF902460B4615
:1052200030463946FAF7F8FFFBF77EFCD4ED027AF8
:1052300007EE100A87EE270AF3EE097A30EE270A06
:10524000BDEC028BBDE8F0816666666666660A4064
:1052500000FEFF4600008047000080480000F03F4D
:105260002DE9F04F2DED088B91B007468B46F0EEFF
:1052700040BA10EE904A0792B0F882360293FFF7D8
:1052800003FF10EE106A59463846FFF769FFF0EE4B
:10529000409A9FEDD5AB10EE100AFBF71DF9D8A38D
:1052A000D3E90023FAF7BAFFB0EE4A1AF0EE6A1A11
:1052B00041EC100B07F028FF51EC100BFBF734FC0E
:1052C00008EE100A2046FBF707F9CDA3D3E9002327
:1052D000FAF7A4FFB0EE4A1AF0EE6A1A41EC100B8E
:1052E00007F012FF51EC100BFBF71EFC09EE100A41
:1052F00039EE488AC8EE2B7A39EE679ADBED0B7AE5
:105300009FEDBD7A67EE877AF7EE006A77EEA67AB0
:1053100086EEA77A8DED0A7ACDED0B6ADBED0D7A7C
:10532000BBF9402007EE102AB8EEC77A27EE277A9D
:1053300037EE267A8DED0C7A9BED0E6ABBF9423082
:105340009B1A07EE903AF8EEE77A67EE867A77EEE8
:10535000A67A67EE277ACDED0D7AB7F8143607EE08
:10536000903AF8EE677A9FEDA87AF4EEC77AF1EEFC
:1053700010FA03DD9FEDA57A77EEC77ABBF91430FA
:1053800007EE103AB8EEC77A87EE27BAB7F880363C
:105390005B119A4603F080030693B7F8103607EEC8
:1053A000903AF8EE677ACDED0E7AB7F8503607EE00
:1053B000903AF8EE677ACDED0F7A002309E010AA53
:1053C00002EB830252ED027A67EE8B7A42ED027AAB
:1053D0000133012B15DC10AA02EB830252ED027A95
:1053E0009FED897AF4EEC77AF1EE10FAE7DD9FEDD2
:1053F000877A77EEC77A10AA02EB830242ED027A2F
:10540000DDE70E98FBF768F8CDE9000142F64C2382
:105410003BF9033007EE903A9BED088AB3EE097A28
:1054200079EEC79A28EE298AB7EE007A38EE078A15
:10543000F8EEE77A67EE887A17EE900AFBF74CF8F9
:1054400080468946DBF81C00FBF746F804460D460B
:105450003046FBF741F866A3D3E90023FAF7DCFEF8
:1054600002460B46CDE9042320462946FBF78CF87B
:105470000022624BFAF7D2FE02460B46CDE9082322
:1054800040464946FBF780F802460B46DDE900013D
:10549000FAF7C2FEFBF748FB0E909BF82530069A00
:1054A00093422ED00F98FBF717F804460D4642F6AC
:1054B0004E233BF9033007EE903A42F650235B440B
:1054C00093ED007AF8EEE77A77EE877A68EE277A3E
:1054D00017EE900AFBF700F802460B46DDE90801DB
:1054E000FBF752F802460B4620462946FAF794FE8F
:1054F000FBF71AFB0F904FF000095546DDF808A0A6
:1055000036E00F98FAF7E8FF04460D4642F64E23C0
:105510003BF9033007EE903AF8EEE77A67EE887AC7
:1055200017EE900AFAF7D8FF02460B46DDE90801AC
:10553000FBF72AF802460B4620462946FAF76CFE8E
:10554000FBF7F2FA0F90D6E709F11F0218E009F114
:105550003F031AE0033326E0033328E0E31C2DE089
:1055600009F1030330E0B7F88236994250D0A146E2
:10557000B9F5407F80F2CB814A46B9F1000FE3DBF9
:1055800052114B46B9F1000FE1DB9B11A2EB430234
:1055900052B2B9F1000F09F00101B8BF49425140C0
:1055A00019F10203D6D49E1019F10303D4D4A6EB4B
:1055B000A30609F101042346002CCFDB06EBA3066A
:1055C0004B46B9F1000FCBDBA6EBA3064FEA42082E
:1055D000C8F1010316FB03F676B215F0800FC2D1B5
:1055E0001146C0E7AFF3008000000000000010404B
:1055F0006666666666660A40000020420000F03F6C
:10560000666666666612714000FEFF4600008047CF
:10561000CDF8009037F8193007EE903AF8EE677A37
:105620001FED077AF4EEC77AF1EE10FA03DD1FEDF5
:10563000097A77EEC77A27EE8B8A09F5C4630BEBFC
:105640004303B3F9042009F592630BEB8303D3ED15
:10565000017A29EEA77AF7EE007A77EE277A07EE3D
:10566000102AB8EEC77A67EE277A17EE900AFAF793
:1056700033FFCDE9020109F5F2630BEB83035868B0
:10568000FAF72AFF02460B46DDE90401FAF77CFF30
:105690000022A54BFAF7C2FD02460B46DDE90201E6
:1056A000FAF772FFCDE9020118EE100AFAF714FFBB
:1056B000DDE90223FAF7B0FDFBF736FA07EE900AB0
:1056C0009BF82530069A93421BD042F658235B4440
:1056D00093ED007A08F1FF3306EE903AF8EEE66AB1
:1056E00066EE876A76EEA76A42F654235B44D3EDF2
:1056F000007A07EE106AB8EEC77A27EE277A76EEC0
:10570000C77AC7EEAB8ADBED067A10AB03EB8A03F0
:1057100013ED027A27EE877A78EEC78A09F110092D
:105720000BEB890999ED018A0AF529630BEB8303D9
:1057300093ED017A67EE877A78EE677A9BED0A8AB5
:1057400029EE888AB7EE007A38EE078A27EE888A33
:1057500018EE100AFAF7C0FE9FED6F1BCDE90201AB
:1057600041EC100B07F0D0FC59EC108B69EE087A75
:1057700077EEA87A17EE900AFAF7AEFE02460B46CD
:1057800040464946FAF700FFFBF7CEF9FAF7A4FEC8
:1057900041EC100B07F054FE07F052FEB0EE40AAA9
:1057A000F0EE60AADBF83000FAF796FE80468946F4
:1057B00002460B4651EC1A0BFAF7E6FEFBF7B4F97A
:1057C000064657A3D3E9002340464946FAF7DCFED4
:1057D00002460B4600205449FAF71EFD02460B46CE
:1057E000DDE90201FAF7D0FE804689463046FAF735
:1057F00073FE42464B46FAF711FD8046894618EE85
:10580000900AFAF769FE42464B46FAF7E7FF8046F0
:10581000894619EE100AFAF75FFE42464B46FAF740
:10582000FDFC41EC100B07F00BFE07F009FE3CA35A
:10583000D3E9002351EC100BFAF7EEFCFBF774F9F7
:1058400007EE900ABBF93E3007EE103AB8EEC77A81
:10585000B4EEE77AF1EE10FA17DCBBF9403007EE50
:10586000103AB8EEC77AB4EEE77AF1EE10FA4ADCF5
:10587000BBF9423007EE103AB8EEC77AB4EEE77AD9
:10588000F1EE10FA41DD022300E0002310AA02EB42
:10589000830212ED067A27EE087A03F10A020BEB77
:1058A000820292ED018A1C330BEB4303B3F90430FF
:1058B00006EE903AF8EEE66A77EEE67A68EE277A38
:1058C000F7EE006A77EEA67A27EE278AC8EE887A86
:1058D00077EE897A17EE900AFAF7FEFD41EC100B8D
:1058E00007F0AEFD07F0ACFD0DA3D3E9002351ECAA
:1058F000100BFAF791FCFBF717F9079B009A03EBE3
:105900008203186033E60123C0E70323BEE711B02A
:10591000BDEC088BBDE8F08F0000000000000840DF
:1059200066666666661271400000F03FB0F8662059
:1059300013B2100A02B27F2A01DDA0F58072520173
:10594000DBB2A3F580739BB25B019BB2A3F500535E
:105950000A804B807047000038B52DED028B0C4655
:10596000B0F864309A0A07EE902AF8EEE77AB3EEC0
:105970000F7AF4EEC77AF1EE10FA03DD9FED1B7A91
:1059800077EEC77ADFED1A8A67EEA88AC3F30903B8
:1059900007EE903AF8EEE77A9FED167AF4EEC77AC2
:1059A000F1EE10FA03DD9FED147A77EEC77AB4EECC
:1059B000008A27EE888AB0F86250008C00F47040AC
:1059C000FAF778FD00220D4BFAF7DEFD00220C4BB2
:1059D000FAF724FCFBF7A8F8C4ED018A84ED028AEB
:1059E000A5812061BDEC028B38BD00BF0000804264
:1059F000000080390080FF43000080440000103F19
:105A000000002040B0F960308B82704790F8783009
:105A100007EE903AF8EEE77A9FED087AF4EEC77A4F
:105A2000F1EE10FA03DD9FED067A77EEC77A9FED6F
:105A3000057A67EE877AC1ED067A70470000FE426C
:105A4000000080430000003DB0F87030C3F3013324
:105A500081F8243070470000B0F878301B0A07EE58
:105A6000903AF8EEE77A9FED097AF4EEC77AF1EE14
:105A700010FA03DD9FED067A77EEC77A9FED057A7F
:105A800067EE877AC1ED0A7A704700BF0000FE42D8
:105A9000000080430000003930B4B0F87E30C3F31A
:105AA000013303EB83035D004FF6D8738B8700232C
:105AB000CB87B0F87E20C2F30312A1F84020B0F8E3
:105AC0007E4002FB05F2A1F84020C4F3032405FB4D
:105AD0000422A1F84220B0F87E4004F00F040834FC
